:020000040000FA
:10000000021305022003FFFFFFFFFF02200BFFFF8B
:10001000FFFFFF020E67FFFFFFFFFF02201BFFFF36
:10002000FFFFFF022023FFFFFFFFFF02202BFFFF48
:10003000FFFFFF022033FFFFFFFFFF020EAAFFFFBB
:10004000FFFFFF022043FFFFFFFFFF02204BFFFFE8
:10005000FFFFFF022053FFFFFFFFFF02205BFFFFB8
:10006000FFFFFF022063FFFFFFFFFF02206BFFFF88
:10007000FFFFFF022073FFFFFFFFFF02207BFFFF58
:10008000FFFFFF022083FFFFFFFFFF02208BFFFF28
:10009000FFFF70DFFFFF040000000002000000C847
:1000A0000300030369A5020269A501000000000026
:1000B00004003273000074F812104C900393E06057
:1000C0001590030274FEF0900304744DF0A37405C0
:1000D000F07A0112068C7F0102116974F712104C3C
:1000E00074FF1212717E00801F851882851983E0CB
:1000F00064FE70069003877401F085188285198369
:10010000E0F8900384E068F07C017D00AA18AB1948
:10011000120E228B09EA450970030201F385188249
:10012000851983E064EF70027E07E0C0E0900387EA
:10013000E0FA900385E0F8EA28F8E43400F9740264
:1001400028F582740339F583D0E0F0900387E060EE
:100150009814600E14602C14603C14605214606893
:100160008098900384E4F0851882851983E09003D9
:1001700086F0C394809003874004E40200F974027F
:100180000200F9851882851983E0900382F09003BC
:100190008774030200F9851882851983E090038330
:1001A000F0900386E0601990038774040200F990D0
:1001B0000385E004F0F8900386E06860030200FA2B
:1001C00090038774050200F9900385E4F09003879B
:1001D000F0900384E0F8851882851983E068600355
:1001E0000200FA900382E0644D60030200FA1203F9
:1001F000288002EEF9740112123D7F020211697427
:10020000F712104C74FB121271EAFEEBFF75080432
:1002100075090078081212D574021212EE7A907BDA
:10022000007904120ECB740212123D12067E1213D4
:100230003FE0687003A3E069701285188285198316
:10024000E0F47003A3E0F4600302030874041212E4
:10025000E61206E48A088B09A808A9097402121399
:100260003FE8F0A3E9F0740412133FE0600879015D
:100270001200B6020321851882851983E068700395
:10028000A3E0697076851882851983E0F47003A372
:10029000E0F47019740212133F7410F0A37420F08C
:1002A0008518828519837410F0A37420F0750801F5
:1002B00075090078081212D574021212EE7A247BA6
:1002C00008120F4F740212123D75080478081212BA
:1002D000D574021212EE7A907B007904120ECB7460
:1002E0000212123D12067E12133FE0687003A3E073
:1002F000697004790280067904800279031200B6DD
:100300008E828F83741E80058E828F83E4F01206A6
:100310007E12133FE0687003A3E0697004790180E6
:1003200002790074050201F774E912104C74F81296
:100330001271900307E0FA900306E0F9FEEAFCE48C
:10034000CCFDEE2CED3408FF751001750F00750E15
:10035000068E088F097402780812129CC39508FC57
:10036000E49509FD74022CF51474033DF515E514AC
:100370002497F516E5153420F517EE2410F508E45A
:100380003FF509EEF50CEF5401F50D8E128F137445
:100390000978121212F685120A900383E01460574E
:1003A00014700302046F1470030204E61460102436
:1003B000FE70030205A11470030206510206617566
:1003C0000E03794E120C619003071206747402F04A
:1003D000A374401206727408120672F0A3F0741827
:1003E000C3940704F510AA10A90F12068CA90E7465
:1003F0000812123D02083E750E04794E120C61EE91
:10040000450D7005A90A120FB5C3EE9425EF9408A7
:10041000503FC3E5089424E50994084034E51424CA
:1004200096F8E5153420F988828983E0701E8516D8
:1004300082851783E070159003887401F0888289A3
:100440008374A5F08516828517838004900388E461
:10045000F075081075090078081212D57C087D0324
:10046000EEFAEFFB120F4F740212123D0203E67513
:100470000E05C3E50A947995E04006750F01020365
:10048000E675104075110078101212D57C097D03B5
:100490007402780C12129CAA0CAB0DA90A120ECB96
:1004A000740212123D900307E0A3F0900306E0A34C
:1004B000F0751043C3EE9425EF940840030203E661
:1004C000C3E5089424E509940850030203E6900369
:1004D00088E070030203E6A816A91788828983E4DE
:1004E000F0A3F00203E675080475090078081212FB
:1004F000D574021212EE7A907B007904120ECB743E
:100500000212123D740212133FE0F8A3E0F98518BD
:1005100082851983E0687003A3E0698518828519D4
:1005200083700BE0F47003A3E0F470578009E0F4EB
:100530007003A3E0F4700D8518828519837410F0A0
:10054000A37420F012067E12133FE8F0A3E9F075C1
:10055000080178081212D574021212EE7A247B0870
:10056000120F4F740212123D75080478081212D54A
:1005700074021212EE7A907B007904120ECB740290
:1005800012123D12067E12133FE0687003A3E06969
:100590007006750E010203E6750E02750F07020361
:1005A000E6900391E06007640260030203E6EAFF5D
:1005B0007A01790012068CE060030206458003127E
:1005C0000D22120D2CE970F7740412133F12066607
:1005D000740412133F780812132385080C85090D43
:1005E000850A0E850B0F9005A2780C1212C27404B6
:1005F00012133F780C121314E5084509450A450B00
:1006000070CE8EC2E5C554E04FF5C5740412133F99
:10061000120666740412133F780812132385080C1F
:1006200085090D850A0E850B0F9005A2780C121214
:10063000C2740412133F780C121314E508450945DF
:100640000A450B70CE7A01790012068C79080203F4
:10065000EFE9900393F070030203E6750E090203BD
:10066000E679060203EFE4F0A37426F0A3E4F0A316
:10067000F022F0A3E4F0A3F0A3F0A3F0A3228518E6
:1006800082851983E0F8A3E0F974022274F812104D
:100690004CEAFE900305E0D2E7F0E9A3F0EE900308
:1006A00003F08E0874042AFE7C028004E062080CC9
:1006B000ECFA3395E0FB74022AF58274033BF58370
:1006C000EEF8C3EA98EB9400A2D265D03340DDE5A2
:1006D00008F074012A0C3395E0FD7A027B03120EB8
:1006E000520200D674E912104C7582007583FE1216
:1006F00012048A168B177514007515008A828B8375
:10070000E4F0900391E07006D2AAD2AF80046402B4
:10071000700579001200B6750C00750D20750E007D
:10072000750F00900391E0600464027015120D22B1
:100730001200DBE9F87409686003020814790012FA
:1007400000B675080075090278081212D5740212F5
:1007500012EE850C08850D09AA08E5095407FB85EA
:100760000E0A850F0B740B7808121258A908120E86
:10077000CB740212123D7E007F009005AAC0828ECB
:1007800010EFF5113395E0F512F513850C08850D82
:1007900009850E0A850F0B780879101212AF9005A3
:1007A000A678081212C2758305D08278081211E566
:1007B000501D851882851983E5822EF582E5833FD9
:1007C000F583E0F9AA14AB151208438A148B150EB1
:1007D000EE70010FC3EF940240A09005AE780C12AA
:1007E00012C29005B2780C1211E54003020723797A
:1007F00000AA14AB1512084379001208438B159018
:100800000391E07004C2AFC2AAEA451570277AA529
:100810007BA58021E870030207427406687003021A
:1008200007427407687003020742851682851783A2
:100830007401F080BA7582007583021212047F1071
:10084000021169C008C0097C088A088B09740F78F6
:10085000081212F6E508F8EA25E0FAEB33FBE9A204
:10086000E7500474014AFAE8A2E0500874216AFAD9
:1008700074106BFBE9C333F91CEC70CDD009D008C0
:100880002274F812104C78007900802274942EF5AE
:1008900082E43403F583E08A828B83F0900414129F
:1008A0000A014005900414E4F008E870010990047E
:1008B00014E0FEA3E06E6007C3E89CE99D40CDE82C
:1008C000FAE9FB7F0102116974F712104C90049849
:1008D000E0F509A3E0F508F8E509C398F895E0F913
:1008E000E508C39509E8500B120AE3701178007906
:1008F00000801B247F500109C39CE99D50EF7A00C2
:100900007B008041E004F0D2E908E8700109C3E807
:100910009CE99D502C8A828B83E0C0E0900499E092
:10092000FE74182EF582E43404F583D0E0120AD365
:1009300090049AE4F0900499E0C3947F40C6E48068
:10094000C5E8FAE9FB7F02021169C082C083C2E9EF
:10095000900498E0F8A3E0686017741828F582E422
:100960003404F583E0F5C1900498120AFA4002E4D9
:10097000F0020D4074F812104C7800790090051DBB
:10098000E07055A3E0705175F900C28FC284A28354
:1009900040FCA28F4004A28350F8AEF9C28FA2831C
:1009A0005004D2848032EEC0E0E0FE1209F6D0E0BE
:1009B000F090051E120AFA40D9E4F080D51209F62B
:1009C000E08A828B83F090051D120A014005900594
:1009D0001DE4F008E870010990051DE0FEA3E06E3B
:1009E0006007C3E89CE99D40D4E8497006E4F090B4
:1009F000051DF00208BF749D2EF582E43404F583D2
:100A000022E004120AD7C394802274F812104C908A
:100A100005A0E0FEF890059FE0FFEEC39FE0500DBB
:100A2000C398F895E0F9120AE270188012C398F89A
:100A300095E0F9E8247F500109C39CE99D4004EC4E
:100A40004D70077A007B00020AD08A828B83E0F522
:100A5000F9A3AA82AB83780179008008E004F0084A
:100A6000E8700109C3E89CE99D50278A828B83E0E6
:100A7000C0E09005A0E0FE741F2EF582E43405F579
:100A800083D0E0120AD39005A0E0C3947F40CDE468
:100A900080CCC28FA28340FCC284A28F4004A28378
:100AA00050F890059F120AEDE0F5F9C28F90059F6E
:100AB000E0FAA3E06A90059F7005120AED80051226
:100AC0000AFA4002E4F0A28350D0D284E8FAE9FBAB
:100AD0000208C3120AD722F08A828B83A3AA82ABB0
:100AE0008322E824FF18E934FFF9E84922E0FA7488
:100AF0001F2AF582E43405F58322E004F0C39480D4
:100B00002274FB121271C2009005CA7808121323D6
:100B10009005CA7401F0A3F0A37469F0A374A5F062
:100B20009005B678081212877004D20080159005DF
:100B3000BA78081212876008E59D54186410700393
:100B4000022000120C87A2005003020C04AA18AB6A
:100B5000191201FFE97003020C04851882851983BC
:100B6000E0C3943C500CE0F8743CC398FA95E0FB69
:100B700080047A007B00120D45E97003020C04909A
:100B80000391E06401700C75F800C2AB539AF7D280
:100B9000EA805E79071200B68003120D22120D2C36
:100BA000E970F7740112133FE4F0A37426F0A3E494
:100BB000F0A3F0740112133F780812132385080C78
:100BC00085090D850A0E850B0F9005A2780C12126F
:100BD000C2740112133F780C121314E5084509453D
:100BE0000A450B70CE758600C2AAC28B539AFBC20F
:100BF000E990000174CDF0022000C2AF75C9AB7559
:100C0000C95B80FE750800750900750A00750B0048
:100C1000900391E0701BD2AAD2AF79051200B6E022
:100C20007003120D221200DBE9F874096870098064
:100C3000E9794E120C6180ED74016870E2E0701782
:100C4000120D229005BE78081212C29005C27808D3
:100C50001211E550EBC2AAC2AF75C9AB75C95B8072
:100C6000FEC082C08378109005A1E0C3995015752D
:100C7000B60FE5B4A2E750FAE5BBC39940F118E816
:100C800070EDE9F0020D40C082C08353BEFBE59DCC
:100C9000A2E650FA0078F8790100120AE270FA75BB
:100CA000C6807480659E70FA43BE049062707408BA
:100CB000F0794A120C6190000174F5F07403F5D5D7
:100CC00075D489A2A0E433900391F0A2E05029D218
:100CD0008453F3F753F3EF53FDF743FD10538FF7AE
:100CE00053F7DF43FC2043F10253F5DF75F820434F
:100CF000F4F0D2FED2AB802853FF3F85FFFF53F1C3
:100D0000FE43F30C53F2F375868075C48090049B08
:100D1000E4F0A3F075C2D875C50B75C402438640D4
:100D2000801E800312094AA2E940F922C082C083D2
:100D3000900498E0F8A3E0686004790180027900EB
:100D4000D083D0822274F112104C74FF1212717E83
:100D500000900391E06401706CC28490039274016E
:100D6000F07508388E098E0A8E0B7C017D00AA185A
:100D7000AB19120E228B0DEA450D6018851882857D
:100D80001983E06410602DE064EF70088E088E090E
:100D90008E0A8E0B85080C85090D850A0E850B0FB2
:100DA0009005A278081212C2E50C450D450E450FBC
:100DB00070347E01900391E064017056D2849003F8
:100DC00092E4F08051D2AAD2AF8A088B09E4F50AE6
:100DD000F50B9005C6780C1213237808790C120FC6
:100DE000CC79061200B6900391E06003020D6A12FE
:100DF0000D221200DBE9F874096870077906120009
:100E0000B680917407686084E8608974066870A48D
:100E10008082C2AFC2AAEEF9740112123D7F0802AD
:100E20001169C082C083900391E07005120881802F
:100E30001E900392E06015A28F500BE5F98A828B19
:100E400083F07A0180027A007B0080031209740229
:100E50000D40C082C083900391E070051208C880E5
:100E600003120A0A020D40C0E074F21210B29000A0
:100E700001E064CD7005122013802AE064F570242F
:100E8000E5C1C28BC0E0900415E0F8749428F582A7
:100E9000E43403F583D0E0F0900415120AFA40051B
:100EA000E4F08001007F01021111C0E074F2121021
:100EB000B2900001E064CD700512203B800BE0642D
:100EC000F5700512094A80010080DA74F612104CA0
:100ED000890A740F550AF508750900740B78081211
:100EE000129CEA2400F8EB3480F9E82400E9350983
:100EF000F985C709A2AFE433F508C2AFE50AC454C7
:100F00000FFAE5C754F84AF5C7740A12133FE0FA1E
:100F1000A3E0FB801C88828983E08C828D83F0882B
:100F2000828983A3A882A9838C828D83A3AC82AD9E
:100F300083EAFEEBFFEE24FF1AEF34FFFBEE4F7067
:100F4000D48509C7E508A2E092AF7F030211697456
:100F5000F712104CED900389F0ECA3F0A37462F04B
:100F6000A37473F0A3E0541FF0740912133FE0F56B
:100F700008A3E0F509E508333354FC90038EF074C0
:100F80000678081212F6E50890038DF090038F742E
:100F900012F0A37442F075D1FE75D601EA90627129
:100FA000F0EBA3F0906270E0D2E1F0E0A2E740FB4A
:100FB0007F02021169C082C083E9C333906272F07C
:100FC000906270E0D2E0F0D083D08222080808EA74
:100FD000C0E0EBC0E086F0E7A4FA180986F0E7A4C9
:100FE0002AFA180986F0E7A42AFA180986F0E7A475
:100FF0002AFA1986F0E7A4FBE5F02AFA190886F028
:10100000E7A42BFBE5F03AFA190886F0E7A42BFBDE
:10101000E5F03AFA18180986F0E7A4C5F02BFBE4CE
:101020003AFA1908E7C5F0C6A426F6E5F03BFBE45A
:101030003AFA1886F0E7A4F6E5F00826F6E43B084D
:10104000F6E43A08F6D0E0FBD0E0FA222518C58293
:10105000C0E0E51934FFC583C0E0E518C3958224DC
:10106000F910AF0885831985821880088583198552
:101070008218D2AFCEF0A3E520F0A37808E608F0FE
:10108000A3DEFAEFF0A3E58124FBF8E608F0A3E67F
:1010900008F0A30808E608F0A3E608F0A3158115F8
:1010A00081D0E0FED0E0F815811581E8C0E0EEC007
:1010B000E022C0D02518C582C0E0E51934FFC58301
:1010C000C0E0E518C3958224F310AF088583198525
:1010D00082188008858319858218D2AFC8F0A3E9E9
:1010E000F0A3EAF0A3EBF0A37908E709F0A3D8FA9C
:1010F000ECF0A3EDF0A3EEF0A3EFF0A3D0E0F0A3AB
:10110000D0E0F0A3D0E0F0A3E520F0A3E5F0F0A359
:1011100022851983851882E0C0E0A3E0F9A3E0FAF4
:10112000A3E0FBA37808E0F608A3DFFAE0FCA3E065
:10113000FDA3E0FEA3E0FFA3E0C0E0A3E0C0E0A3C6
:10114000E0F5D0A3E0F520A3E0A3F5F010AF08850B
:1011500083198582188008858319858218D2AFD0BB
:1011600082D083D0E0F8D0E032851983851882E000
:10117000A3FEE0A3F5207808E0A3F608DFFAE0A3D9
:10118000FFE0A3C0E0E0A3C0E0E0A3C0E0E0A3C0B4
:10119000E010AF088582188583198008858218853C
:1011A0008319D2AFD083D08222E490030278A17950
:1011B000038002F0A3D8FCD9FA7AA27B0590008EB6
:1011C000782979018015E493A3AD82AE838A828B5E
:1011D00083F0A3AA82AB838D828E83D8E9D9E712EC
:1011E0000B01121349C008C3E096F50808A3E09666
:1011F000420808A3E096420808A3E096450870015B
:10120000D3D00822C5822518C582C583351910AFF1
:1012100007F5198582188007F519858218D2AFC5A0
:1012200083222518F58210AF08F518400C15198097
:1012300008F51840021519D2AF8519832200C0D0D5
:10124000251810AF08F518500C05198008F518502E
:10125000020519D2AFD0D0226016080808C6C31301
:10126000C618C613C618C613C618C613C6D5E0EAF4
:1012700022251810AF08F518400C15198008F5182C
:1012800040021519D2AF22E066701008A3E0667024
:101290000A08A3E066700408A3E0662270042260D6
:1012A0000D18C6C333C608C633C6D5E0F41822E607
:1012B00027F60809E637F60809E637F60809E6379B
:1012C000F622E026F608A3E036F608A3E036F60894
:1012D000A3E036F62274028000C0E0F40412122269
:1012E000D0E0121332222518FAE43519FB22251812
:1012F000FCE43519FD22600C08C6C313C618C613DA
:10130000C6D5E0F42275D00075813F7518027519B5
:10131000030211A9E6F008A3E6F008A3E6F008A38B
:10132000E6F022E0F608A3E0F608A3E0F608A3E062
:10133000F622CAC0E0E6F0A308DAFAD0E0FA2225E5
:1013400018F582E43519F5832200000080FBFFFFC9
:10135000FFFFFFFFFFFFFFFFFFFFFFFFFFFFFFFF9D
:10136000FFFFFFFFFFFFFFFFFFFFFFFFFFFFFFFF8D
:10137000FFFFFFFFFFFFFFFFFFFFFFFFFFFFFFFF7D
:10138000FFFFFFFFFFFFFFFFFFFFFFFFFFFFFFFF6D
:0A1FF600CA05094338860000000008
:020000040003F7
:01FFF000F020
:020000040000FA
:10200000022C5F022214FFFFFFFFFFFFFFFFFFFF15
:10201000FFFFFFFFFFFFFFFFFFFFFFFFFFFFFFFFD0
:10202000FFFFFFFFFFFFFFFFFFFFFF022A59FFFF38
:10203000FFFFFFFFFFFFFFFFFFFFFFFFFFFFFFFFB0
:10204000FFFFFF02275DFFFFFFFFFFFFFFFFFFFF17
:10205000FFFFFF022154FFFFFFFFFFFFFFFFFFFF16
:10206000FFFFFFFFFFFFFFFFFFFFFF022908FFFF4A
:10207000FFFFFFFFFFFFFFFFFFFFFFFFFFFFFFFF70
:10208000FFFFFF0221A8FFFFFFFFFFFFFFFFFFFF92
:10209000102010200100F0FF0700080000FFFF00E3
:1020A00000030400000F0100000300019651180016
:1020B000020000AA31000000000E312E327A31F207
:1020C0003100003831000000000000000000004432
:1020D0003100000000000000000000503106FFFF4A
:1020E000FF010400005A18000000E8030000FFFF91
:1020F0002A19018813000003E8030000640064004B
:10210000B801A0BB0D00A0BB0D0002020207040134
:102110000101051E02051E020A0A01010108090843
:102120000103B80B02803E0102FEFFE8030A05002E
:1021300001FFFF0A011401E00105030101FF0F1077
:10214000FEFFF94D000000002F4D00000000FF00D1
:102150000000FF00C0E074F2122527A2AFE433F5BF
:1021600008D2AFAFA7AEA1EE5F54106006122E9E4C
:1021700075A1EFEE5F54086008122EA475A1F780D8
:1021800023EEA2E092F0EFA2E082F0501790619867
:10219000E0F8900739E0C398A2D265D0335002E846
:1021A000F075A1FEE5088063C0E074F2122527A255
:1021B000AFE433FED2AF9061A4E0F8759B00E591E7
:1021C00058540860087591F7122EF28023E5915853
:1021D000541060087591EF122EF88014E591A2E07A
:1021E00092F0E8A2E082F05007E0C2E0F012304244
:1021F0009061A3E0F8E5E9585404600E12301875B8
:10220000E9FB906193E0A2E640F2EEA2E092AF7F9C
:1022100001022586C0E074F2122527A2AFE433FE46
:10222000D2AF9061A5E0F8E5BF585404600675BFD1
:10223000FB12305A80D4C3E498F8E499F91222775B
:102240008026C3E49AFAE49BFBE920E7E9122277AF
:10225000E498F8E499F922C3E498F8E499F9122291
:1022600077E498F8E499F9C3E49AFAE49BFB22EB4B
:1022700020E7CFE920E7E0B90010BB0008E88AF0CA
:1022800084F8AAF022E4FBC8FA22EB70227B10C883
:1022900033C8C933C9335007C39AC3DBF280069AE7
:1022A00050012ADBEAC833F4C8C933F4C9FA2275ED
:1022B000F008E4C833C8C933C933C99AC99B50046C
:1022C000C92AC93BD5F0ECFBC833F4C8E4C9FA22EB
:1022D00074F51224C174FA122AD275080475090023
:1022E0007808122A2C7404122A9C7AF87B07790346
:1022F000122DA874021229EE9081247808122C8DD8
:102300007402122CE47808122AFD704875080275D0
:1023100009007808122A2C7402122A9C7AF67B078C
:102320007903122DA874021229EE8518828519836B
:10233000E0F47003A3E0F4601B851882851983E044
:10234000F8A3E08882F5837402F0A3F0A37469F027
:10235000A374A5F0C2AF75D69F02000074061229BF
:10236000EE7F040227A0080808EAC0E0EBC0E08680
:10237000F0E7A4FA180986F0E7A42AFA180986F00B
:10238000E7A42AFA180986F0E7A42AFA1986F0E7E2
:10239000A4FBE5F02AFA190886F0E7A42BFBE5F088
:1023A0003AFA190886F0E7A42BFBE5F03AFA181878
:1023B0000986F0E7A4C5F02BFBE43AFA1908E7C553
:1023C000F0C6A426F6E5F03BFBE43AFA1886F0E7FF
:1023D000A4F6E5F00826F6E43B08F6E43A08F6D061
:1023E000E0FBD0E0FA22E4CFC0E0E4CEC0E0E4CDF0
:1023F000C0E0E4CCC0E075F020E626F608E633F64F
:1024000008E633F608E633F6181818EC33FCED331B
:10241000FDEE33FEEF33FFC3EC9709ED9709EE971E
:1024200009EF97191919400FFFEC97FC09ED97FD7B
:1024300009EE97FE191906D5F0BFECF709EDF7097B
:10244000EEF709EFF7191919D0E0FCD0E0FDD0E064
:10245000FED0E0FF222518C582C0E0E51934FFC593
:1024600083C0E0E518C3958224F810AF088583196E
:102470008582188008858319858218D2AFCEF0A393
:10248000E520F0A37808E608F0A3DEFAEFF0A3E574
:102490008124FAF8E608F0A3E608F0A3E608F0A322
:1024A0000808E608F0A3E608F0A315811581D0E03E
:1024B000FED0E0F8158115811581E8C0E0EEC0E09E
:1024C000222518C582C0E0E51934FFC583C0E0E5C8
:1024D00018C3958224F910AF088583198582188066
:1024E00008858319858218D2AFCEF0A3E520F0A32A
:1024F0007808E608F0A3DEFAEFF0A3E58124FBF804
:10250000E608F0A3E608F0A30808E608F0A3E6084A
:10251000F0A315811581D0E0FED0E0F8158115817A
:10252000E8C0E0EEC0E022C0D02518C582C0E0E5DA
:102530001934FFC583C0E0E518C3958224F310AFBA
:10254000088583198582188008858319858218D2A9
:10255000AFC8F0A3E9F0A3EAF0A3EBF0A37908E792
:1025600009F0A3D8FAECF0A3EDF0A3EEF0A3EFF09E
:10257000A3D0E0F0A3D0E0F0A3D0E0F0A3E520F0FA
:10258000A3E5F0F0A322851983851882E0C0E0A3BB
:10259000E0F9A3E0FAA3E0FBA37808E0F608A3DFE4
:1025A000FAE0FCA3E0FDA3E0FEA3E0FFA3E0C0E0AF
:1025B000A3E0C0E0A3E0F5D0A3E0F520A3E0A3F5FD
:1025C000F010AF08858319858218800885831985E6
:1025D0008218D2AFD082D083D0E0F8D0E032122C73
:1025E000D9B9000302261DE49004D1786C791A80D1
:1025F00002F0A3D8FCD9FA7A3C7B1E90209478C1D3
:1026000079018015E493A3AD82AE838A828B83F037
:10261000A3AA82AB838D828E83D8E9D9E77582879E
:1026200075838774071229D075822A75834B7400CD
:102630001229D00575F0108E1A8F1B85821F858395
:102640001E851882851983E0CEA3E0CF851F828581
:102650001E83EBC9EAC8EDCBECCAC3E833C8E93343
:10266000C9EA33CAEB33CBC3EA9EF51DEB9FF51CD9
:10267000B35004AB1CAA1DEC33CCED33CDD5F0DA4E
:10268000AE1AAF1B22D083D082ECC0E0EDC0E0E4F4
:1026900093A3FCE493A3FDED4C600D1227E0EC2422
:1026A000FFFCED34FFFD80EFE493A3FCE493A3FD76
:1026B000ED4C600D1228B3EC24FFFCED34FFFD80DF
:1026C000EFD0E0FDD0E0FCE493A3C0E0E493C0E0F1
:1026D00022851983851882E0A3FEE0A3F5207808FF
:1026E000E0A3F608DFFAE0A3FFE0A3C0E0E0A3C0A8
:1026F000E0E0A3C0E0E0A3C0E0E0A3C0E010AF08CA
:102700008582188583198008858218858319D2AF40
:10271000D083D0820229D6D083D082E9C0E0E4936E
:10272000A3C386F0C5F095F0F908E493A386F0C53D
:10273000F095F0700BE493A3C3994005E90480027F
:10274000A3E475F002A42582F582E5F03583F583D4
:10275000D0E0F9E493A3C0E0E493C0E022C0E074C9
:10276000F2122527A2AFE433FED2AFC2C0901ADE28
:10277000E0700BE5D1A2E4501D122E0E8018E5D1B9
:10278000A2E3500675D1F7122DDEE5D1A2E4500682
:1027900075D1EF122DE4EEA2E092AF7F0102258603
:1027A000851983851882E0A3FEE0A3F5207808E070
:1027B000A3F608DFFAE0A3FFE0A3C0E0E0A3C0E0D7
:1027C000E0A3C0E0E0A3C0E010AF088582188583D5
:1027D000198008858218858319D2AFD083D08222D0
:1027E000C0E0C3E49396087401939618400FE493F5
:1027F00066700808740193661870007019A3A3C36B
:10280000E49396087401939618A3A3400DD0E0D0EA
:10281000E0D0E00226C1A3A3A3A3A3A3D0E022D0CB
:1028200083D082C5F0E493A3C5F0C395F0F5F0E43E
:1028300093A3C395F04005E5F0048001E475F00230
:10284000A42582F582E5F03583F583E493A3C0E007
:10285000E493C0E0227404800474028000CCC0E0E1
:10286000EDC0E0E518C39CCCAD1950011D10AF06BA
:102870008C188D1980068C188D19D2AF122952D060
:10288000E0FDD0E0FC2274028000CCC0E0EDC0E0AE
:10289000E518C39CCCAD1950011D10AF068C188DE6
:1028A0001980068C188D19D2AF122930D0E0FDD0D6
:1028B000E0FC22C0E0C0F088F0E493667008087481
:1028C000019366187000A8F0A3A3700BD0F0D0E0BD
:1028D000D0E0D0E00226C1A3A3D0F0D0E022D08384
:1028E000D082CCC0E0E493A360061229921470FA5F
:1028F000E493A36006122ABC1470FAD0E0FCE493BF
:10290000A3C0E0E493C0E022C0E074F21225277572
:102910008900C2C5901ADEE0700E7A007B10900725
:10292000CFE0F91233608003123BEE7F010225866F
:10293000CAC0E0E493A3C582CCC582C583CDC5835C
:10294000F0A3C582CCC582C583CDC583DAE5D0E0CE
:10295000CA22CAC0E0E0A3C582CCC582C583CDC56A
:1029600083F0A3C582CCC582C583CDC583DAE6D00A
:10297000E0CA22C008C3E096F50808A3E096420822
:1029800008A3E096420808A3E09645087001D3D05A
:102990000822C0E0E493A3D39C5010E493A3C39C0B
:1029A000400AD0E0D0E0D0E00228FBA3A3A3D0E00F
:1029B000227009080808226016181818C6C333C602
:1029C00008C633C608C633C608C633C6D5E0EA22F1
:1029D000C09FF59FE473D09F22D083D082C09FE434
:1029E00093C0E0740193C0E0740293F59F2200C08D
:1029F000D0251810AF08F518500C05198008F518E7
:102A000050020519D2AFD0D0222518F58210AF0898
:102A1000F518400C15198008F51840021519D2AFA9
:102A2000851983227404800A74038006740280026C
:102A30007401C0E0F404122A09D0E0122C9C22BBDD
:102A40000102E722C082C08389828A83BB0003E03F
:102A50008002E493D083D08222C0E0C0D0E8C0E0FE
:102A6000A8A8D2AFC2C7E8A2E792AFD0E0F8D0D012
:102A7000D0E0326016080808C6C313C618C613C6CD
:102A800018C613C618C613C6D5E0EA222518F8E4FE
:102A90003519F9222518FAE43519FB222518FCE42A
:102AA0003519FD22C3E0C696F608A3E0C696F608DF
:102AB000A3E0C696F608A3E0C696F622C0E0E4932B
:102AC000A36C7009D0E0D0E0D0E00228FBA3A3D033
:102AD000E022251810AF08F518400C15198008F5EC
:102AE0001840021519D2AF22E76670100809E76690
:102AF000700A0809E76670040809E76622E0667054
:102B00001008A3E066700A08A3E066700408A3E05A
:102B10006622C3E09608A3E09608A3E09608A3E027
:102B200096A2D265D03322C3E096F008A3E096F0D7
:102B300008A3E096F008A3E096F022C3E697F60813
:102B400009E697F60809E697F60809E697F622C31C
:102B5000E49396087401939608740293960874039C
:102B6000939622E627F60809E637F60809E637F6CF
:102B70000809E637F622E026F608A3E036F608A3B1
:102B8000E036F608A3E036F622E493F608740193E3
:102B9000F608740293F608740393F622E647F608E3
:102BA00009E647F60809E647F60809E647F622E689
:102BB00057F60809E657F60809E657F60809E657F2
:102BC000F622E056F608A3E056F608A3E056F6080B
:102BD000A3E056F622E056F008A3E056F008A3E082
:102BE00056F008A3E056F022E026F008A3E036F005
:102BF00008A3E036F008A3E036F022700422600D4E
:102C000018C6C333C608C633C6D5E0F41822E4C3D9
:102C100096F608E496F608E496F608E496F622C6D8
:102C2000F4C608C6F4C608C6F4C608C6F4C62260D0
:102C30000D08C6A2E713C618C613C6D5E0F322C313
:102C4000E7960809E7960809E7960809E79622C378
:102C5000E09608A3E09608A3E09608A3E096227504
:102C6000D00075813F7518D1751904000225DE600A
:102C70000C08C6C313C618C613C6D5E0F422E6F086
:102C800008A3E6F008A3E6F008A3E6F022E0F608C1
:102C9000A3E0F608A3E0F608A3E0F622CAC0E0E647
:102CA000F0A308DAFAD0E0FA22EAF0A3EBF0A3EC02
:102CB000F0A3EDF022E0FAA3E0FBA3E0FCA3E0FD2B
:102CC00022E0F8A3E0F9A3E0FAA3E0FB22E8F0A3F6
:102CD000E9F0A3EAF0A3EBF022E5C754F84401F5CC
:102CE000C77901222518F582E43519F583221229C6
:102CF000D9C9DF051229D9E5DF051229D92AE0054E
:102D00001229D9BAE0051229D912E1051229D9F4FC
:102D1000E1051229D9D9E2051229D91EE3051229A4
:102D2000D97FE3051229D90BE4051229D937E40527
:102D30001229D982E4051229D9A8E4051229D9401B
:102D4000E5051229D9E9E5051229D93CE60512293C
:102D5000D96DE6051229D9A4E6051229D948E80556
:102D60001229D914E9051229D9C7E9051229D995DB
:102D700093071229D9A693071229D9449407122937
:102D8000D95C94071229D9F7FF011229D9E2FF0172
:102D90001229D96A94071229D97A94071229D98F4E
:102DA00094071229D9D394071229D9BA9007122966
:102DB000D93D91071229D9A391071229D9FAFF0108
:102DC0001229D9ED7F001229D9FD7F001229D9DB04
:102DD000FF051229D92595071229D92E9507122901
:102DE000D93795071229D94595071229D93CFA03F5
:102DF0001229D9A9FA031229D971FB031229D9E69C
:102E0000FB031229D9E9FC031229D98AFE031229EE
:102E1000D9EFFE031229D93AFF031229D94BFF0338
:102E20001229D95AFF031229D970FF031229D98315
:102E3000FF031229D994FF031229D95FC30612296F
:102E4000D98BC3061229D90DC6061229D964C60624
:102E50001229D9A4C6061229D9B8C6061229D9D171
:102E6000C6061229D9C2C7061229D973C806122963
:102E7000D987C8061229D994FE061229D9B8FE06A8
:102E80001229D9D1FE061229D903FF061229D933F6
:102E9000FF061229D960FF061229D9C2FF0612299E
:102EA000D9D1FF061229D9DBFF061229D9E8FF067E
:102EB0001229D90A80071229D92A80071229D9692B
:102EC00080071229D98480071229D9A380071229E3
:102ED000D90981071229D91281071229D96F8107CF
:102EE0001229D97E81071229D9A281071229D96313
:102EF00082071229D97082071229D98182071229E3
:102F0000D956FF051229D96EFF051229D99AFF0556
:102F10001229D959DC061229D9B3DD061229D9C0E4
:102F2000DD061229D9D3DD061229D9E8DD061229DA
:102F3000D9FDDD061229D910DE061229D984DE0654
:102F40001229D9E9DE061229D98BDF061229D94FB9
:102F5000E0061229D95FE0061229D96EE00612298F
:102F6000D949FF011229D96DFF011229D995FF0115
:102F70001229D9BDFF011229D9AF82071229D9D64A
:102F800082071229D9F582071229D95D83071229F0
:102F9000D9CAFB061229D9E3FB061229D9EFFB0691
:102FA0001229D903FC061229D921FC061229D92B92
:102FB000FC061229D935FC061229D948FC0612292B
:102FC000D9D5FC061229D944FD061229D973FD066C
:102FD0001229D9C1FD061229D910FE061229D92BB2
:102FE000FE061229D935FE061229D946FE061229F7
:102FF000D989FE061229D9AFFF031229D97EA4066A
:103000001229D9A8A4061229D9C5A4061229D9D8EB
:10301000A4061229D9EEA4061229D94CA506122914
:10302000D97FA5061229D970A9061229D9D0AA06D6
:103030001229D903AB061229D94DAB061229D9AAF8
:10304000AC061229D9D2AC061229D9E7AC0612294E
:10305000D9F7AC061229D93BAD061229D996AD068F
:103060001229D9A6AD061229D93D8C071229D957A4
:103070008C071229D97F8C071229D9988C0712291D
:10308000D9BC8C071229D9DA8C071229D9F18C07FF
:103090001229D91F8D071229D93A8D071229D9DF94
:1030A00094071229D93AF8061229D94AF8061229A2
:1030B000D951F9061229D985F9061229D9B1F9068B
:1030C0001229D9D4F9061229D9F2F9061229D92CD4
:1030D000FA061229D995FA061229D9D7FA06122921
:1030E000D916FB061229D947FB061229D972FB060D
:1030F0001229D9ECEC061229D951ED061229D9F77B
:10310000ED061229D92EEE061229D9A8EA051229B0
:10311000D93FEB051229D96DED051229D958F005D3
:103120001229D9E6F1051229D952F2051229D9A19D
:10313000F5051229D9ECF6051229D96D8D0712294A
:10314000D9B88D071229D98AFD021229D99AFF020E
:103150001229D91AF8051229D947F8051229D98652
:10316000F9051229D91FFB051229D9A3FD0512293A
:10317000D9DAFD051229D928FF051229D99BC806DD
:103180001229D941CB061229D9E6CB061229D91228
:10319000CC061229D940CC061229D975CC061229A1
:1031A000D99DCC061229D9FDCC061229D9F08C065E
:1031B0001229D9D790061229D9C692061229D9EF19
:1031C00093061229D9CF94061229D97D9606122981
:1031D000D92798061229D9F798061229D94B9906AA
:1031E0001229D95785071229D96185071229D98251
:1031F00085071229D9E8CE051229D95ED4051229EE
:10320000D9CCD5051229D988D7051229D981D80555
:103210001229D9B3D9051229D9C5DA051229D9A598
:10322000DB051229D97CDC051229D96C9C051229F1
:10323000D9A49C051229D9CAA6051229D9ABA7057C
:103240001229D9F7A8051229D940AA051229D9F6B9
:10325000AA051229D9CAAB051229D9B1AC05122980
:10326000D999AD051229D93BAE051229D965AE050C
:103270001229D915B0051229D985B0051229D99E70
:10328000B0051229D9F5B1051229D9A6B20512291E
:10329000D928B3051229D9D4B3051229D944B405C4
:1032A0001229D9E0B4051229D957B5051229D98FA9
:1032B000B5051229D991B6051229D950B705122999
:1032C000D9F6B7051229D97389071229D99D89071B
:1032D0001229D9B28A071229D9B58A071229D9A980
:1032E00092071229D9F592071229D9379307122983
:1032F000D94793071229D98B93071229D9E0BC0625
:103300001229D91EBD061229D987BD061229D9A4B2
:10331000BD061229D9BDBD061229D96FBE061229D4
:10332000D978BE061229D9BDBE061229D9F3BE0628
:103330001229D90ABF061229D97CBF061229D90938
:10334000C0061229D93FC0061229D996C0061229F3
:10335000D9FAC0061229D91DC1061229D981C10680
:103360001229D9DDC1061229D918C2061229D94D50
:10337000C2061229D95FC2061229D971C2061229C2
:10338000D9A9C2061229D9F5C2061229D933C30612
:103390001229D999D2061229D9D9D3061229D9FCD2
:1033A000D3061229D90DD4061229D902D60612291C
:1033B000D922D6061229D984FD041229D9BAFD04CE
:1033C0001229D902FE041229D95EFF041229D9E17B
:1033D000E9021229D912EB021229D94CEB02122967
:1033E000D90BED021229D935ED021229D9C2EF020B
:1033F0001229D902F0021229D999F1021229D92CE5
:10340000F2021229D984F2021229D927F3021229D1
:10341000D95FF3021229D9A1F3021229D910F502BA
:103420001229D962F6021229D985F8021229D9B3D4
:10343000F8021229D9DAF8021229D9E3F80212297E
:10344000D93AF9021229D9CCF9021229D9BAFC02C7
:103450001229D93DFD021229D94E95071229D964A6
:1034600095071229D9EBE8061229D901E906122994
:10347000D9A6E9061229D9E5E9061229D902EA06F0
:103480001229D933EA061229D980EA061229D9B3BA
:10349000EA061229D9EEEA061229D9DAEC0612292F
:1034A000D98F8E071229D9EE8E071229D9398F07A5
:1034B0001229D9A78F071229D91990071229D9578C
:1034C00090071229D99890071229D9D6AD0612294A
:1034D000D9DCAD061229D91DAE061229D90FB006C6
:1034E0001229D93FB0061229D9AEB0061229D97CCB
:1034F000B1061229D9BDB1061229D9EBB10612299C
:10350000D975B2061229D98CB2061229D999B206F8
:103510001229D9A3B2061229D93FB4061229D94FCC
:10352000B5061229D998B5061229D9D2F601122961
:10353000D9E8F6011229D97BF7011229D9A7F80198
:103540001229D99CF9011229D939FA011229D979FC
:10355000FA011229D9F7FA011229D954FB011229CB
:10356000D964FB011229D98BFB011229D9DEFB0199
:103570001229D94FFD011229D954FD011229D974FC
:10358000FD011229D999DB031229D9CBDB031229BA
:10359000D964DC031229D9BDDD031229D9A4DE03C5
:1035A0001229D96FE0031229D98BE0031229D9DA45
:1035B000E0031229D95CE1031229D9B2E1031229EF
:1035C000D9C5E1031229D929E2031229D984E203DA
:1035D0001229D934E3031229D925E4031229D96029
:1035E000E4031229D9E6E4031229D9D6E603122905
:1035F000D997E7031229D9BEE8031229D93BE90379
:103600001229D9FAE9031229D97FEA031229D9CB61
:10361000EA031229D9E5EA031229D92EEB0312296C
:10362000D944EB031229D9FAEB031229D920ED036F
:103630001229D92BED031229D992ED031229D9E5CC
:10364000ED031229D943EE031229D93FEF031229C2
:10365000D9E2F1031229D901F2031229D912F30395
:103660001229D936F3031229D9ACF3031229D96CE4
:10367000F4031229D9A3F4031229D915F503122949
:10368000D935F6031229D965F6031229D978F6033C
:103690001229D97BF6031229D984F6031229D99667
:1036A000F6031229D910F7031229D946F703122974
:1036B000D959F7031229D985F7031229D9ACF70391
:1036C0001229D9D0F7031229D97EF8031229D9F08B
:1036D000F8031229D927F9031229D931F90312293C
:1036E000D968F9031229D97EF9031229D99BF90364
:1036F0001229D9C9F9031229D9DFF9031229D9F7F7
:10370000F9031229D909FA031229D9BC9107122900
:10371000D9CD91071229D95892071229D968D7060D
:103720001229D9A6D7061229D932D8061229D93D8D
:10373000D9061229D959DB061229D98EDB0612299E
:10374000D9D5B5061229D924B6061229D9C4B70687
:103750001229D998B9061229D9DAB9061229D9A598
:10376000BA061229D9ADBB061229D9CFBB06122938
:10377000D92BBC061229D9ACBC061229D934510068
:103780001229D95651001229D9E952001229D932E9
:1037900053001229D9A653001229D9235400122903
:1037A000D98854001229D98B54001229D9CD54003C
:1037B0001229D93C55001229D9EB55001229D9EE0E
:1037C00055001229D96356001229D9A6560012298C
:1037D000D99C5A001229D9075C001229D9455C00EE
:1037E0001229D99B5C001229D9E15F001229D95E08
:1037F00060001229D90C62001229D93C63001229F9
:10380000D97264001229D9EC64001229D90F66001C
:103810001229D9B466001229D9C866001229D9968E
:1038200067001229D9BF68001229D9D86A00122965
:10383000D9B26C001229D9436D001229D9517000F8
:103840001229D9F270001229D9E171001229D93058
:1038500075001229D94075001229D9BE76001229A7
:10386000D94F77001229D94C78001229D9E3790071
:103870001229D97D7A001229D9A27B001229D9EC0C
:103880007B001229D9AC7C001229D90080051229AD
:10389000D9A080051229D90A81051229D9238105C9
:1038A0001229D9BA81051229D9FE81051229D920F8
:1038B00083051229D95C83051229D9D883051229D9
:1038C000D92384051229D98284051229D992850524
:1038D0001229D9B288051229D9D389051229D94EBE
:1038E0008A051229D9358C051229D9D58C051229BA
:1038F000D97C8D051229D9DF8D051229D9548E0561
:103900001229D9638F051229D93790051229D96D4B
:1039100090051229D99C90051229D9509105122998
:10392000D97C91051229D9FC91051229D97C9305DE
:103930001229D90895051229D95096051229D9BB03
:1039400097051229D9C798051229D96A990512290C
:10395000D9E399051229D9119B051229D9C1BA04B5
:103960001229D924BB041229D96CBB041229D9B05D
:10397000BB041229D91ABC041229D963BC04122928
:10398000D99BBC041229D935BD041229D98FBD0495
:103990001229D9DCBE041229D965BF041229D98C99
:1039A000BF041229D996C0041229D981C104122951
:1039B000D9CEC1041229D9CDC2041229D9F5C20425
:1039C0001229D93EC4041229D94FC4041229D96737
:1039D000C4041229D950C5041229D936C6041229A3
:1039E000D93FC7041229D969C7041229D981C7044C
:1039F0001229D99BC7041229D9D2C7041229D9F296
:103A0000C7041229D919C8041229D930C8041229A7
:103A1000D90CC9041229D964C9041229D90DCC04BE
:103A20001229D93CCD041229D972CD041229D97C8E
:103A3000CD041229D993CD041229D900CE0412291C
:103A4000D9E9CE041229D91FCF041229D9F0CF0405
:103A50001229D991D0041229D9BFD0041229D9CC66
:103A6000D1041229D9EBD1041229D96ED20412291A
:103A7000D9DFD2041229D923D3041229D9A7D30418
:103A80001229D904D4041229D9B1D4041229D997FE
:103A9000D6041229D977D7041229D9CDD7041229EF
:103AA000D92BD9041229D950DB041229D9FADD0403
:103AB0001229D9A4DF041229D974E0041229D9ECFF
:103AC000E0041229D90EE1041229D9FDE1041229DA
:103AD000D9EDE2041229D958E3041229D9A7E00646
:103AE0001229D9BBE2061229D981E3061229D9D6B7
:103AF000E3061229D953E4061229D9E7E40612296C
:103B0000D905E5061229D949E5061229D96FE50636
:103B10001229D995E5061229D9ADE5061229D9C58C
:103B2000E5061229D930E6061229D972E6061229CD
:103B3000D987E6061229D98EE7061229D9A9E70600
:103B40001229D989F9041229D9BBE7061229D9C447
:103B5000E7061229D9CEE7061229D9EFE70612297E
:103B6000D96CE8061229D9B0CD061229D911D2068E
:103B70001229D92DD2061229D932D2061229D9F901
:103B800087071229D996F4061229D9ACF40612290E
:103B9000D932F6061229D97BF6061229D9E7F6069C
:103BA0001229D9DAF7061229D9CFDD051229D91B36
:103BB000F8061229D9E28A071229D9697D0012294B
:103BC000D9C57D001229D9057E001229D96E7E0043
:103BD0001229D9927E001229D9A77E001229D9C7AD
:103BE0007E001229D9E77E001229D9F77E0012291A
:103BF000D90E7F001229D93A7F001229D9CA7F0035
:103C00001229D9BDFF041229D90080031229D93203
:103C100080031229D99E80031229D93981031229E0
:103C2000D9D881031229D91D82031229D93F8203D1
:103C30001229D95882031229D97E82031229D9A0C8
:103C400082031229D9DE82031229D9228303122981
:103C5000D94483031229D9A683031229D96D840379
:103C60001229D92485031229D99685031229D968E6
:103C700086031229D9B286031229D905870312298E
:103C8000D96B87031229D9A587031229D9F787038E
:103C90001229D91388031229D93E88031229D9453C
:103CA0008A031229D9998B031229D9BB8B031229B4
:103CB000D9EF8B031229D9108C031229D91F8C0339
:103CC0001229D92A8C031229D9DA8C031229D94353
:103CD0008D031229D9F08D031229D9288E031229B8
:103CE000D9EE8E031229D9FB8F031229D9459003EF
:103CF0001229D9D490031229D93891031229D973E2
:103D000091031229D9DF93031229D933950312297C
:103D1000D96C98031229D93999031229D9C7990363
:103D20001229D9DB99031229D9049A031229D976C9
:103D30009A031229D90A9B031229D97A9B031229C3
:103D4000D9629C031229D9849C031229D9EA9D03C4
:103D50001229D9039E031229D9169E031229D97359
:103D60009E031229D9829E031229D90B9F0312297F
:103D7000D9219F031229D92DA0031229D93AA003D2
:103D80001229D943A0031229D91BA2031229D94B06
:103D9000A3031229D95BA3031229D96AA403122908
:103DA000D9E1A4031229D91AA5031229D94AA603D5
:103DB0001229D990A6031229D95CA8031229D93453
:103DC000AC031229D948AC031229D952AC031229E9
:103DD000D95CAC031229D966AC031229D970AC03A3
:103DE0001229D989AC031229D993AC031229D9110C
:103DF000AD031229D91CAD031229D949AD031229EB
:103E0000D96EAD031229D979AD031229D9C7AD03F3
:103E10001229D9D1AD031229D9DCAD031229D90059
:103E2000AE031229D924AE031229D980AE03122978
:103E3000D9C6AE031229D9E3AE031229D960AF0364
:103E40001229D997AF031229D9D6AF031229D92342
:103E5000B0031229D9A5B0031229D93EB103122902
:103E6000D90EB3031229D96CB3031229D988B4032C
:103E70001229D9AEB4031229D9EDB5031229D913E9
:103E8000B9031229D954BB031229D930BD03122911
:103E9000D9C6BD031229D9EDBF031229D999C00390
:103EA0001229D9CEC0031229D933C1031229D93D11
:103EB000C1031229D967C3031229D955C403122992
:103EC000D99EC5031229D9DEC5031229D984C60398
:103ED0001229D915C8031229D99EC9031229D9BE9E
:103EE000C9031229D917CA031229D919CB031229D8
:103EF000D963CB031229D9B3CB031229D99DCC03A3
:103F00001229D912CD031229D92CCE031229D9A7EF
:103F1000CE031229D9ACCF031229D957D2031229C3
:103F2000D976D2031229D9D7D3031229D999D50327
:103F30001229D9EDD5031229D9A5D6031229D954AE
:103F4000D7031229D9B4D7031229D96AD803122961
:103F5000D9FFD8031229D96BD9031229D9A5D903BE
:103F60001229D9D6D9031229D932DB031229D90053
:103F700080021229D93280021229D96980021229BD
:103F8000D95082021229D99082021229D973830250
:103F90001229D9CB83021229D90685021229D952B6
:103FA00085021229D97A88021229D9E68B021229B0
:103FB000D9338D021229D9C98D021229D9D58D0282
:103FC0001229D9078E021229D9898F021229D9976D
:103FD00090021229D9C190021229D91891021229EE
:103FE000D97191021229D9DD91021229D9F49302D3
:103FF0001229D98395021229D94D96021229D98BFB
:1040000097021229D9BB99021229D98B9C02122935
:10401000D9989C021229D91F9D021229D9C79D0245
:104020001229D90A9E021229D9539E021229D9A710
:104030009E021229D90C9F021229D9749F021229BB
:10404000D9919F021229D9C19F021229D9F69F0244
:104050001229D9C6A0021229D96FA1021229D9F3B7
:10406000A3021229D913A5021229D9FCA5021229EB
:10407000D97EA6021229D9A0AA021229D9DDAA0244
:104080001229D935AB021229D968AB021229D9E914
:10409000AB021229D936AC021229D9C1AC021229BD
:1040A000D913AD021229D9EAAD021229D9A3AE0261
:1040B0001229D93EAF021229D957B2021229D97753
:1040C000B3021229D928B7021229D946B8021229F7
:1040D000D949B8021229D978B8021229D97EBA0270
:1040E0001229D957BB021229D98CBB021229D994A3
:1040F000BC021229D94ABD021229D9F0BE021229E6
:10410000D954BF021229D979BF021229D9B8BF02E6
:104110001229D9F9BF021229D9D1C0021229D9AF67
:10412000C1021229D9DCC1021229D9A9C20212295D
:10413000D9DFC4021229D950C5021229D990C5026B
:104140001229D9C9C5021229D95DC6021229D9A6D8
:10415000C7021229D969CB021229D958CC021229D7
:10416000D93FCD021229D9B7CD021229D979CE0271
:104170001229D92FD0021229D9B7D0021229D9CCAD
:10418000D1021229D9DDD1021229D9F5D102122981
:10419000D906D2021229D91AD2021229D952D20230
:1041A0001229D980D2021229D907D4021229D9D9C9
:1041B000D4021229D960D5021229D99BD50212291D
:1041C000D9F9D5021229D940D6021229D905D80227
:1041D0001229D9B7D8021229D9E7D8021229D9CB86
:1041E000D9021229D97CDA021229D937DC02122924
:1041F000D9EEDC021229D923DD021229D98BDD0286
:104200001229D9BADE021229D96CDF021229D99DEE
:10421000DF021229D9B5DF021229D944E00212299E
:10422000D9F8E2021229D9D0E4021229D9ECE40229
:104230001229D908E5021229D9D6E5021229D9BFD7
:10424000E9021229D9DDF0061229D91DF106122939
:10425000D9D0F2061229D9DFF2061229D99DB80564
:104260001229D9B4BD051229D9FFBD051229D94F8C
:10427000C0051229D9E3C1051229D971C205122935
:10428000D9D2C4051229D9D7C6051229D92BC705F9
:104290001229D93AC9051229D98DC9051229D9E897
:1042A000C9051229D90ACA051229D911CA05122924
:1042B000D929CA051229D909CB051229D9E8CB0574
:1042C0001229D9A981011229D9EB81011229D921F9
:1042D00087011229D96D87011229D9B387011229C3
:1042E000D90289011229D95E89011229D9A389012C
:1042F0001229D9368B011229D98C8E011229D9B1F4
:104300008F011229D9339B011229D9C69B01122989
:10431000D9239F011229D962A0011229D9BDA00178
:104320001229D905A2011229D9F1A2011229D9888D
:10433000A5011229D9F7A6011229D97EA7011229B0
:10434000D981A7011229D9F6A7011229D900A801FC
:104350001229D90DA8011229D938A8011229D9E8A2
:10436000A8011229D9E5A9011229D98FAA01122978
:10437000D91CAB011229D93AAB011229D953AB018F
:104380001229D97CAB011229D99EAB011229D9E49B
:10439000AD011229D9C7AE011229D90DAF011229D9
:1043A000D98CAF011229D938B0011229D96AB001CC
:1043B0001229D9BCB0011229D9F8B0011229D93774
:1043C000B1011229D987B1011229D98CB101122961
:1043D000D9E0B1011229D90CB2011229D9E8B201F0
:1043E0001229D938B3011229D9A5B3011229D9FF4D
:1043F000B3011229D996B4011229D9DBB7011229C8
:10440000D9F3B8011229D98CBA011229D9BFBD013B
:104410001229D951BE011229D948C1011229D9073F
:10442000C2011229D94BC2011229D9F0C3011229A4
:10443000D904C4011229D90EC4011229D918C40102
:104440001229D924C4011229D940C4011229D9A0A2
:10445000C6011229D9DFC6011229D9E9C6011229DC
:10446000D9F3C6011229D979C7011229D9D1C701B7
:104470001229D9EEC8011229D952C9011229D95FCE
:10448000CA011229D9A3CA011229D94FCB01122975
:10449000D928CC011229D9E3CC011229D9F0CD01B8
:1044A0001229D92ACF011229D927D0011229D93F9F
:1044B000D0011229D996D0011229D9A0D0011229F0
:1044C000D9AAD0011229D9B5D0011229D9D3D00146
:1044D0001229D91BD1011229D97DD1011229D9A4C0
:1044E000D1011229D9B6D1011229D951D2011229EB
:1044F000D986D2011229D985D3011229D9D3D30162
:104500001229D9CDD4011229D903D5011229D9866E
:10451000D5011229D9F7D5011229D9A3D70112291A
:10452000D9CDD8011229D990D9011229D961DA013E
:104530001229D9CCDA011229D949DB011229D976FD
:10454000DC011229D90ADD011229D95ADD0112290B
:10455000D9C5DD011229D98BDE011229D9D5DE0199
:104560001229D92DDF011229D905E0011229D928F4
:10457000E0011229D9EBE0011229D90DE10112293C
:10458000D976E1011229D98CE3011229D97CE40101
:104590001229D946E5011229D97EE7011229D9C885
:1045A000E7011229D918E8011229D985E801122951
:1045B000D9E7E8011229D915E9011229D939E90108
:1045C0001229D96EE9011229D99FE9011229D9D2FC
:1045D000E9011229D92CEA011229D97FEA0112290D
:1045E000D9ABEB011229D958ED011229D9A6ED0159
:1045F0001229D9CFED011229D95BEE011229D9D0A8
:10460000EE011229D9DEEE011229D902EF01122999
:10461000D95FEF011229D97EEF011229D934F001B7
:104620001229D96CF0011229D9AFF0011229D9123F
:10463000F1011229D904F3011229D92EF30112290B
:10464000D932F4011229D944F5011229D9F4F5011E
:104650001229D96999061229D9A199061229D9C214
:1046600099061229D9049A061229D9669A0612299E
:10467000D9709A061229D9809A061229D9BB9A06AE
:104680001229D99B9E061229D988A0061229D96E13
:10469000A2061229D905A3061229D9A7A306122911
:1046A000D99680041229D94181041229D9EF8104B5
:1046B0001229D9F582041229D91583041229D93E69
:1046C00084041229D9F985041229D96C8604122987
:1046D000D91087041229D91C88041229D987880483
:1046E0001229D9C388041229D90689041229D9416B
:1046F00089041229D98389041229D9188A04122914
:10470000D9948A041229D95E8B041229D93B8C04CE
:104710001229D9D38C041229D9ED8C041229D91D60
:104720008D041229D94E8D041229D9148E04122910
:10473000D9248E041229D9738E041229D9808E04AB
:104740001229D9898E041229D9078F041229D96315
:104750008F041229D9AE8F041229D9C98F041229C6
:10476000D9F48F041229D91190041229D91D90046B
:104770001229D9B491041229D9CD91041229D95200
:1047800092041229D96592041229D984920412291B
:10479000D92893041229D9A994041229D95C960422
:1047A0001229D9F296041229D9F596041229D9654D
:1047B00097041229D98397041229D91A9804122927
:1047C000D96298041229D96598041229D92B990421
:1047D0001229D99899041229D9BE99041229D949C4
:1047E0009A041229D9679A041229D9AD9A04122978
:1047F000D9619B041229D9AB9B041229D9DA9B04F5
:104800001229D9379C041229D96C9C041229D998F1
:104810009C041229D9A69C041229D9F39C041229BC
:10482000D9639D041229D9AC9D041229D9F89D049D
:104830001229D9249E041229D92F9E041229D94D58
:104840009E041229D9389F041229D9429F041229A3
:10485000D97D9F041229D98D9F041229D9969F04CE
:104860001229D9EA9F041229D9FE9F041229D92DB1
:10487000A1041229D940A1041229D955A104122951
:10488000D9E3A1041229D928A2041229D9B4A20477
:104890001229D9BFA2041229D901A4041229D91CB2
:1048A000A4041229D968A4041229D9D7A40412296E
:1048B000D910A5041229D92AA5041229D98AA50438
:1048C0001229D929A6041229D974A6041229D94477
:1048D000A9041229D9F6A9041229D963AA04122914
:1048E000D9A3AC041229D9BBAC041229D9BEAC049B
:1048F0001229D9CAAC041229D9DEAC041229D9E68E
:10490000AC041229D919AD041229D91CAE041229FC
:10491000D9A9AE041229D919AF041229D99BAF0421
:104920001229D95CB0041229D97BB0041229D91CF0
:10493000B1041229D979B1041229D97CB104122900
:10494000D9F0B1041229D93FB3041229D945B404CE
:104950001229D9D0B4041229D9EBB5041229D9B33C
:10496000B6041229D9E4B6041229D907B7041229CA
:10497000D910B7041229D93FB7041229D9CFB704E7
:104980001229D985B8041229D9FAB8041229D9A153
:10499000B9041229D916BA041229D94DBA04122918
:1049A000D98BBA041229D932F9041229D986F8040C
:1049B0001229D9BEF6041229D907F6041229D9D42E
:1049C000F5041229D989F5041229D924F5041229EC
:1049D000D9E3F4041229D9C3F4041229D9F5F30454
:1049E0001229D982F3041229D920F3041229D9C338
:1049F000F2041229D936F1041229D9D3F00412296C
:104A0000D927F0041229D91EF0041229D912F00472
:104A10001229D9DFEF041229D990EC041229D962A6
:104A2000EC041229D9FDEB041229D9EAEB0412296E
:104A3000D9DFEB041229D991DD051229D9A3EB04A2
:104A40001229D96BDD051229D9EFDC051229D9F518
:104A5000FC041229D9AAFC041229D93EFC0412290B
:104A6000D9DBFB041229D9D1E9041229D9BAE90406
:104A70001229D9F0E8041229D94DE8041229D9B134
:104A8000FB041229D971E6041229D913E50412296D
:104A9000D908E5041229D980E4041229D909F806B5
:104AA0001229D917E4041229D935FB041229D9F3A4
:104AB000E3041229D9B98C061229D9728C0612295D
:104AC000D9118C061229D9DC8B061229D9B18B0693
:104AD0001229D97D8B061229D9558B061229D9D8CE
:104AE0008A061229D9C28A061229D9928A0612295F
:104AF000D9088A061229D94D86061229D9058406B5
:104B00001229D9DD81061229D95F81061229D9100F
:104B100081061229D90080061229D99D8006122902
:104B2000D95E80061229D9B2E70600000080FBE4B6
:104B3000738F000100DC1E87000100D21A350004CB
:104B400000A01E25000200A41E26000200A61E27AB
:104B5000000200A81E28000100B21E29000100B3B7
:104B60001E84000400AA1A860001004A1E2A0001C1
:104B700000B41E2B000100B51E2C000100BB1E2D31
:104B8000000800B81A2E000100BC1E2F000100BD55
:104B90001E30000100BE1E31000100BF1E320001A8
:104BA00000C01A33000100C11A34000100C01E36D3
:104BB000000100C21A38000100C11E39000100BA0C
:104BC0001E83000200D91E63000100CD1A6400019B
:104BD00000B61E65000100B71E6D000100CE1A71FF
:104BE000000800B01A66000100D81E43000100C989
:104BF0001E44000200CA1E45000100CC1E460002F1
:104C000000CD1E47000800C51A48000100CF1E4B0A
:104C1000000100D01E04000100DB1EA1000100DF26
:104C20001E37000100DE1E88000100DD1E3C000171
:104C300000C31A3D000100C21E49000200D11E67D8
:104C4000000100CF1A4D000200D31E4E000100D516
:104C50001E4F000200D61E3E000100C81E5100017A
:104C600000C41E52000100C51E53000100C71E549F
:104C7000000100C41A0000000000000001363601E7
:104C80000100010201000103010001040106060503
:104C9000020000070100340801000F090401010DA2
:104CA0000100FF0E08000017020000190100FF1AA2
:104CB0000100011B0100FE1C0100081D0200001F75
:104CC00001000120010001210200002301000F2446
:104CD0000200002601000127010008280200FF2A27
:104CE0000100072B0102402C0100002D0100012EC4
:104CF0000100012F0100FF30010B1D310800003AB7
:104D00000100083B01000F3C0100013D0100FF3E96
:104D100004000042040000460400004A0400004E63
:104D200004000052040000560400005A0400000170
:104D300003710301030103010301030103220302C1
:104D4000030103100300030003000300030003003A
:104D500003000342030003240306030003000304CB
:104D60000312032503230325032303040304030081
:104D7000030003000344030003000323030003654F
:104D80000321003503810300030503000300030032
:104D900003000325032303030271023001600211A3
:104DA0000270020102020202028002100261023A53
:104DB00000410063027302720262024302000213A6
:104DC0000238000002000204021202000200020087
:104DD00002000204020402370037003C02440200D1
:104DE0000239000002000265020002350281020061
:104DF000020502820283020002030071003001609A
:104E00000011007000310220035004800010006186
:104E10000000001400630073007200620043000091
:104E20000013000600000000000400120000000053
:104E3000000000000004000400370037003C02447A
:104E40000000000000000000006500000035008147
:104E50000000000500000083000000010171010155
:104E60000101011101010131010101010180011064
:104E70000161013B0014006301730172016201438F
:104E8000010001130106013D01350004011201007A
:104E90000100010001000104010401330133013C60
:104EA00001440132013600000100016501000135B5
:104EB00000810100010501820183010001030471E9
:104EC00004020460041104700402040204010402D8
:104ED0000410046104000414046304730472046283
:104EE0000443040004130406040004000404041230
:104EF00004000400040004000451046400000400E1
:104F000004000444040004000400040004650400D8
:104F1000043504810464000504000483040004369D
:104F2000000100060000000F00000000000000006B
:104F3000000000000003FFFF00000403FFFF00006B
:104F4000FFFF0FF4010005C4040320000100000B63
:104F5000000000000000000003010F00000000003E
:104F60000000000000000000000000000000000041
:104F700000000000000000000000000000130022FC
:104F8000381F0028381F802E380000CA380100CA98
:104F9000380200A43702809E370300AA370400B00D
:104FA000370480B6370500BC370600C8373000E646
:104FB000373100E0373200F2373300F8373500FE82
:104FC000373400043836000A381100163814001C33
:104FD000381500DA37FFFF00000A00000002000069
:104FE0000004000000080000001000000020000085
:104FF00000400000008000000000010000000200EE
:105000000000040000000800000010000000200064
:1050100000004000000108430638430832430B56A5
:1050200043101E3F0A6843020E43052643071443FC
:105030000CF0420DFC4264EA3CFF000007ECFDFD71
:10504000FDECDCDCCCBCACAC9C9C8C7C7C6C6C5CEF
:105050005C5C4C4C3C3C2C2C1C1C03EAF5E5D5D587
:10506000C5B5A595958585757565655555454535D0
:1050700035252515150500160F00000B150B020030
:1050800002220F3300000E0F00000000000000009D
:1050900000000000000000005A6967426565416C2D
:1050A0006C69616E63653039D0D1D2D3D4D5D6D78F
:1050B000D8D9DADBDCDDDEDF000119161816161888
:1050C00023030000034D4C4651181A2505023030C9
:1050D00016181920231A1C1E30003C40423A3F3F4C
:1050E000392F4730303017181921301B1D1F300C55
:1050F0000E020B040B0A0708000F02040201010153
:1051000001090200BE040AE80300000E000000E8E6
:10511000030C001E0000007F00030004091E100A9B
:105120000C100803FF0C280004040209033C0C05C2
:10513000080B081EC082C083901921E4F0A3F07C04
:10514000007D1C7A3B7B181234C2123D1A123F6C50
:10515000123D200266C174F212245574FE122AD246
:10516000E9FF8A08EBFE8C09E9703374026A701655
:1051700079081236F0E4F50AF50B780A122A2C7831
:105180000A122A30805374016A60030252BB790804
:105190001236F07B00EEFAF9123D8C0252B6740121
:1051A0006F600874026F60030252BBEA6008740308
:1051B0006A600302525612418EE960537403650817
:1051C000604D1233188A0A8B0B780A122A2C750A42
:1051D00001780A122A30750A00780A122A30E50985
:1051E000F50A780A122A30EEF50A780A122A309067
:1051F0001855122855901E4AE0F97CC57D1A901E5C
:10520000D91264E8123D44740A1229EE0252B679AA
:10521000021236F0901E4AE0F9901855122CB51281
:105220003D32E9F8901865E0A2E34010E9700D9076
:105230001925E004F0640470031252D77403650862
:105240007076901926E0F9740129F0E9C3940540BD
:10525000671252D7806274016A706074016F790AB4
:10526000702C1236F07A007B04901CD1E0F91234D5
:1052700086AA18AB1979501261DC1261F7E8127630
:10528000897900901C841264E8123DD4804412365F
:10529000F0901EAE1228557A007B2090185AE0F943
:1052A00012347A74041229EE901E4AE0F9901855CF
:1052B000122CB5123D6EE9F8E8601790819C122817
:1052C000557A017B0090185AE0F912347A7404126E
:1052D00029EE7402027B1D901855E4F0A374F8F0D7
:1052E000A374FFF0A37407F02274F6122455E9FFAB
:1052F000EAFE7AD1F912333C8A828B83E5824583B8
:10530000702A7A027B0012331EEA4B700E7A107BF1
:105310000090185AE0F912336080148A828B8374EB
:10532000D1F0EFA3F0EEF912332A8003EFA3F002DD
:10533000553774F712245589089004D112660A90E3
:105340001E96E0F47003A3E0F470309007CFE09075
:105350001E96F0A3E4F080238E828F8312646B602C
:105360000F8E828F83A3A3126468FAA9081237866E
:105370008E828F831261E9E8FEE9FFEE4F70D990CB
:105380001E96E0F47003A3E0F4600A901E96E0FA23
:10539000A90812378612442E901825125C3F124439
:1053A000287F010226D174F0122455890B8C0C75CC
:1053B00009007508007410122CE41261E9741212CD
:1053C0002CE41255E5804712546FF50EA3E0F50F5B
:1053D000AE08EE2EFEE433FFEA2EF582EB126AB63B
:1053E000650E7004A3E0650F7019AE09EE2EFEE4A1
:1053F00033FFEC2EF582ED3FF583E50EF0A3E50FCC
:10540000F00509050AE50AC3950C40BB0508E50847
:10541000C3950B5005750A0080EBA90980007F0831
:105420000226D174F4122455890B7D00740C122CC1
:10543000E41261E980010DEDC3950B502E750A0051
:105440008002050AE50AC39C50ECED25E0FEE4333A
:10545000FFEA2EF582EB3F12765712546F65087003
:1054600004A3E0650970DB7901800279008014AE45
:105470000AEE2EFEE433FFE82EF582E9125BDC2211
:105480001229EE7F040226D10229D674F612245581
:105490001255217003A3E06D701775086375091824
:1054A0007808122A2CEEFA1238D074021229EE80F3
:1054B0001A7508027509807808122A2C8A08890949
:1054C0007808122A2C12550F1229EE806A74F612EF
:1054D00024551255217003A3E06D7017750870757F
:1054E00009187808122A2CEEFA1238D674021229FA
:1054F000EE801A7508037509807808122A2C8A082C
:1055000089097808122A2C12550F1229EE8028EEEC
:10551000240E125BD9FD7C801267671238F4740484
:1055200022EAFEEBFF12677CFCE439FD901825E0CF
:105530006C2274021229EE7F020226D174F6122424
:105540005574FE122AD28A088B0985188285198320
:10555000E4F0A3F01260581268B0FBECFA8882897C
:1055600083A3A3E0F97F007E00600574FF697004E7
:105570007E828045901825E06A7003A3E06B701A64
:10558000AA18AB19124ADCE9FA8518828519831228
:1055900066AE70027E83EAFF801F901AD2E060043C
:1055A0006401700E123CA2E960047E89800B7E814A
:1055B0008007E0640270027E801255DFEEF9AA08CF
:1055C000AB091238DCEF60148518828519831266E6
:1055D000AE60098518828519831270EB02553285F9
:1055E0001882851983E0FCA3E0FD220229D674F21B
:1055F000122455EAFEEBFF75080075090012677862
:10560000F50AE439F50B12442EEA650A7003EB65DE
:105610000B7012124ACAE914F50879017AED7B1869
:10562000124AC48003750980126AB0F50C780C1216
:105630002A30750CED750D18780C122A2C7808128A
:105640002A30780A122A2CE509F5087808122A303F
:105650001264D7126AB3F97A057B801238E27407B4
:10566000027B1D74F6122455E9FF7E0080308A8289
:105670008B8312765FF8E4C8F9E50828E439F50968
:10568000EE25E0F8E433F9EC28F582ED39F583E511
:1056900008F0A3E509F0EA2402FA50010B0EEEC36C
:1056A0009F40CB02553774E812245574FE122AD25B
:1056B0008A108B11750F00851882851983E4F0A379
:1056C000F0F516F517126337351112782F127C900A
:1056D000FA8E828F83A3A3A3E0F9EAF508E439F5F3
:1056E00009AA0AAB0B1244CAE96401702B1274B008
:1056F000122A30E4F508F5097808122A2C780812E5
:105700002A30780A122A2C7508807808122A30125A
:105710005A7E1229EE025A67AA0AAB0B1244CAE952
:105720007041901825E0650A7004A3E0650B6033B2
:10573000901AD2E0640270281274B0122A30E4F594
:1057400008F5097808122A2C7808122A30780A12EB
:105750002A2C7508807808122A30125A7E1229EEF7
:10576000025A678E828F83A3A3A3A3E0F50BEE24D6
:1057700005FE50010FE50B602A127B7485188285A7
:105780001983EAF0A3EB126ACDE84960161255DFDF
:10579000EEFAEFFBA90B1237C28A0C8B0DAE0CAFE1
:1057A0000D8003750B00127B8A601A127B748A16B7
:1057B0008B17EA4B600FAC16AD17EEFAEFFBA90A98
:1057C0001237C28003750A009004D180508E828FF8
:1057D00083A3A3A3A3A3A3A3A3E4F0A3F0EEFAEFF0
:1057E000FB851482851583A3A3E0F8126468F9127F
:1057F000332A851282851383E0C0E0A80F74ED2858
:10580000F582E43418F583D0E0F0050FA2005007CC
:10581000AA12AB131233C6851482851583E0F514E2
:10582000A3E0F515E514451570030259E5851482CA
:1058300085158312646B60DF851482851583A3A3AD
:10584000A3A3A3A3A3A3E0A2E050CC851482851553
:1058500083A3A3A3A31266AE851482851583A3A395
:10586000601E12646DFA7901851482851583A3A3E5
:10587000A3A3125A71124B2F8A128B13D2008010DD
:10588000125A71A3A3A3A3E0F512A3E0F513C2007B
:10589000E5124513700302580C851282851383A309
:1058A000E065087004A3E06509600F74FF65087087
:1058B0000474FF6509600302580C85128285138306
:1058C000A3A3A3A3A3A3A31228598512828513839C
:1058D000A3A3A3A3A3A3E0FC7402122CE41264E824
:1058E000A90B12379874021229EEE97038851282DA
:1058F000851383A3A3A3A3A3A3A3A3A3A31228599C
:10590000851282851383A3A3A3A3A3A3A3A3A3E0C8
:10591000FCAA16AB17A90A12379874021229EEE9ED
:10592000700302580CE50A250BC333240AFA7B00E6
:1059300012331E8A0C8B0DAE0CAF0DEA4F700302B2
:1059400057F28A828B8374D2126CA68A828B83A3CD
:10595000A3127030A3A3A3E50B127CA1E50B603367
:10596000EA240AFAE43FFB8E828F83125C3A8518A0
:1059700082851983E0F50CA3E0F50D750E00780C17
:10598000122A28AC0BEC2CFCE433FD127C8A122981
:10599000EE800D8A828B83A3A3A3A3A3E4F0A3F0DC
:1059A000E50A70030257CDA80BE828F8E433F9EEB6
:1059B00028F8EF39F9E8240AFAE439FB8E828F835C
:1059C000A3A3A3125C3A85160C85170D750E0078FB
:1059D0000C122A28AC0AEC2CFCE433FD127C8A124F
:1059E00029EE0257DDE50F60251274B0122A3075DA
:1059F00008ED7509187808122A2CE50FF5087808C3
:105A0000122A30901825122859750800802DE510AB
:105A1000240BF582E43511F583E0702A1274B0127C
:105A20002A307508ED7509187808122A2C750800B7
:105A30007808122A309018251228597808122A302E
:105A4000125A7E1229EE8518828519831266AE607D
:105A5000098518828519831270EBE51645176007D2
:105A6000AA16AB171233C674021229EE7F10022653
:105A7000D1125A7522E0F8A3E0F583888222E5105E
:105A80002402FCE43511FDE5101264623511F58342
:105A9000E0F97A067B801238E274072274F412244B
:105AA0005574F4122AD28A088B09ECFEEDFF740BB0
:105AB000122CE47403F0122A941234C21265FC749E
:105AC00003122A941234BCE9600A125BD06010E021
:105AD0006401600B8518828519837484025B978E3C
:105AE000828F83A3A3A3A3A3A3A3A3E06013F46063
:105AF00010125BD07016EE2414126AB36003F470B7
:105B00000B8518828519837482025B97127823E0D3
:105B100064217002A3E07055851882851983748C06
:105B2000126206E0F50A780A122A30125BE112408E
:105B30007A74011229EEE9705F851882851983E471
:105B4000F01236CC125BD0704F7401122A9CEE24F6
:105B50000BFAE43FFB124098E9703D7D007C007930
:105B600000EE240BFAE43FFB12389A802BEE24144B
:105B7000126AB3F50A780A122A30125BE1124080E9
:105B800074011229EEE98518828519837007E4F003
:105B90001236CC80037488F0127436F50A780A1233
:105BA0002A307401122A8C880A890B780A122A2C4E
:105BB000E508240CF582E435091261FE4480F50BFA
:105BC000780A122A2C1265DE1229EE740C02548017
:105BD000EE2413125BD9640322F582E43FF583E0DF
:105BE00022EE240BFCE43FFD8E828F83A3A3A3A3AC
:105BF000A3A3A3A3A312746D8E828F83A3A3A3A3D5
:105C0000A3A3A3A3E0F922C082C08374F3122AD213
:105C1000851882851983E4F004122CE4125C3F7429
:105C200003122CE4AA82AB83123C2AAA18AB1912E5
:105C30003C66740D1229EE0266C1A3A3A3A3A3EAD6
:105C4000F0A3EBF02274F6122455EAFEEBFFEA24EF
:105C500013126AB3F8A3E0125C8CF890186BE0584A
:105C6000F508A3E059F509E5084509601C78081214
:105C70002A2C901825122859126AB0FD7C00126750
:105C8000631238EE74041229EE0255378882F583C8
:105C9000125C9422E0FAA3E0F9EA2274EA12245595
:105CA00074DB122AD28A148B1575120075130075D5
:105CB0000A001263373515F58312646DF50EAC18C2
:105CC000AD197A007B00799C123DA4901AD2E06055
:105CD00004640170147A047900123C90EAF50A8594
:105CE0001882851983E02A800885188285198374B3
:105CF00001F0E0F8E50EC3984003025EEDE0C395C5
:105D00000EF509C394044003750903E50975F01AFB
:105D1000A4FAABF01233C08A128B13EA4B70030261
:105D20005EF0750B00AE12AF13850E08025DB57CF8
:105D3000087D0079FFEE240AFAE43FFB1233068562
:105D40000C82850D83A3A3A3A3E0702D850C82850F
:105D50000D831266AE7009127634125F94E48010DF
:105D6000125F71F0901C97E014C0E0125F58D0E011
:105D7000F0125F5C125FA38032901C97E004C0E0D9
:105D8000125F58D0E0125FD0C39403EE4003025E6E
:105D90003612772D7402125FD064017003025E43E5
:105DA000EE2415125F74125F857401F0EE241AFE62
:105DB00050010F050BE50BC395094003025EA2E5F8
:105DC00008C3950A4003025E4CAA087B00123CD22D
:105DD0008A0C8B0D0508901C84125FB6850C828599
:105DE0000D83125F7DF0A3E9125FA8125F5874FF64
:105DF000125FD5A3A3A3A3A3A3E0C0E0125F46D084
:105E0000E0F07401122CE4E4F0850C82850D83121D
:105E100061E97402122CE4E81276897401122A9462
:105E2000123C54E964016003025D2F7404122CE4F7
:105E3000125F62025D3F125F72125FD06403600303
:105E4000025DA0EE2415127637025DA6E50AC39521
:105E50000E40057508008051E50EC3950AF50880CF
:105E600048EE2415127637125FA3F0901C97E014C9
:105E7000C0E0125F58D0E0125FA8741D122CE4E05D
:105E8000C0E0125F46D0E0F0125F501266AC7005C1
:105E90001276348003125F71F0EE241AFE50010F67
:105EA000050BE50BC395095047740E122A9CAA08EE
:105EB0007B007987123DA405087418122CE4125F48
:105EC000B67410122CE4125F62740E122CE4125F8E
:105ED0007D127689901AD2E0600464017083125FAB
:105EE0005C125F857403125F9474FF808A750900E9
:105EF000750A00780A122A307812122A2C780912B0
:105F00002A30E50EF5097809122A307405122CE4BE
:105F1000E0FD7C00E5141264593515FBE5141264AC
:105F20005E3515F583E0F912392A74051229EEE57C
:105F30001245136007AA12AB131233C67425122937
:105F4000EE7F0E0226D1EE2419F582E43FF583227E
:105F5000EE2412F582E43F22125F99221276B47485
:105F60000222AC82AD83EE240AFAE43FFB1234C273
:105F700022EE2414F582E43FF58374012212769612
:105F80001276AAE822125F8922F0EE2416F582E446
:105F90003FF58322F0125F9922EE2418F582E43F48
:105FA000F58322125F89E422F0EE2417F582E43FA4
:105FB000F5837402F0221276968E828F83E8F0A326
:105FC000E9F07C987D1CEE1264593FFB1234C2222A
:105FD000125FD5E022F0850C82850D83A3A3A3A3D5
:105FE0002274F612245574F9122AD2126054127DCA
:105FF00053851882851983122CCD8E828F83A3A39B
:10600000A3A3E0C0E07404122CE4D0E0127AC8F834
:106010007405122CE47401F07406122CE47401F07F
:1060200090182FF090183804127749FAA3E0FB90EB
:106030001830125C3FE8901839F0127AEBE09018B3
:106040002EF0AA18AB19123D38E96003123D3E74D8
:10605000070255348A088B09127A6135092274F2D5
:1060600012245574FF122AD27508007E007F001298
:1060700043448A0A8B0B1261D0800505081261E641
:10608000E84970F7901AD2E060076401600302618A
:10609000461261D080031261E6E849602D8882894A
:1060A000831264E8901C84E06A7003A3E06B600ACA
:1060B0001261ED1264E8EA4B70DC88828983126118
:1060C000F7E0687003A3E069607C7A167B00127ABF
:1060D000446073901C841261E98A828B83E8127693
:1060E00089901C79126D3DF01244B2E98E828F8343
:1060F000A3A3A3A3A3F0901EB4E08E828F83A3A3D7
:10610000A3A3A3A3F07C987D1CEE240B125F69AAC5
:1061100018AB1979411261DCE06008901825126112
:10612000E9800478FE79FF8E828F83A3A3A3A3A3C3
:10613000A3A3E8F0A3E9126206E50AF0A3E50BF0D9
:106140008E0A8F0B0508901839E0F8E508C39850BF
:106150000479008029E508C398F9C39406400279C0
:10616000057800800FE50A2414F582E4350B1261EE
:10617000FEF50B08901839E0FAE8C39A40E7750974
:10618000007809122A30780A122A2CE9F5097809D0
:10619000122A30901839E0F5097809122A30AD0832
:1061A0007C007A307B1890182EE0F912392474059F
:1061B0001229EE901AD2E060046401700BEE4F6079
:1061C00007EEFAEFFB1233C6123D3E7401027B1D4F
:1061D0001243448A0C8B0DA80CA90D22123B048596
:1061E0001882851983221261ED12769622E8241412
:1061F000F582E439F58322127696901C8422F58389
:10620000E0F50AA3E022F0EE1277312274F01224B6
:106210005574FF122AD28A0A8B0B7E008E0E8E0FC7
:10622000126337350BF58312646DFFAC18AD197A24
:10623000007B00799D123DA4851882851983E0F8C2
:10624000EFC39840030262E1E0C39FFEC3940B409A
:10625000027E0AEE75F007A4FAABF01264518A0EC2
:106260008B0FEA4B6079750C00801A8508828509CE
:1062700083A3A3A3A3A37403F0E5082407F50850A0
:10628000020509050CE50CC39E5056AC08AD09E5A6
:106290000C2FFAE43400FB798B123DA4850882852B
:1062A0000983A3A3A3A3A3E01460081460131460DC
:1062B0001F80B8850882850983A3A3A3A3A3E480D4
:1062C000B7850882850983A3A3A3A3A3740180A82B
:1062D000850882850983A3A3A3A3A3740280997E62
:1062E000007508007808122A30780E122A2CEEF574
:1062F000087808122A30EFF5087808122A30740559
:10630000122CE4E0FD7C00E50A126459350BFBE534
:106310000A12645E350BF583E0F912393074051208
:1063200029EEE50E450F6007AA0EAB0F1233C674B7
:10633000011229EE02541EEA127A622274EE12242D
:106340005574FE122AD28A0C8B0D7510007511003F
:10635000126337350DF58312646DF50AAC18AD196B
:106360007A007B0079A312408685188285198312F2
:1063700061E9C3E50A98E49950208518828519835C
:10638000A80AE0C398FEA3E09400FFC3EE9404EFD4
:10639000940040617E037F00805F7E00750B00EEFD
:1063A000F97508007808122A307810122A2CE9F5BD
:1063B000087808122A30E50AF5087808122A30749D
:1063C00005122CE4E0FDAC0BE50C126459350DFB15
:1063D000E50C12645E350DF583E0F912393674056B
:1063E0001229EEE51045116007AA10AB111233C651
:1063F0007402027B4EEE4F60A3EEFAEFFBEA75F0FB
:1064000015A4FAA8F075F015EBA4281264508A10B0
:106410008B11EA4B6032750B00750E00C3E50E9EC2
:10642000E49F400302639FAC08AD09A80AE50E286B
:10643000FAE43400FB79A2124086E5082415F50839
:1064400050020509050E80D4750BB579000263A1D1
:10645000FB1233C08A088B09222402FAE422126458
:106460006222240FF582E422125A77A3A3125A75EE
:10647000E02274F612245574FF122AD2EAFEEBFFD2
:1064800012669A1264E88A82F583A3A3A3A3A3A346
:10649000A3A3E0F9123D5CE9851882851983F075A4
:1064A00008007808122A307401122A8C8808890999
:1064B0007808122A2C7508357509807808122A2C5C
:1064C0001264CB1229EE740102553479011264D79B
:1064D000FAE43F1265F522EE2402FCE43FFDEE24CF
:1064E0000F2285188285198312746D2274F4122488
:1064F0005574FA122AD2126054126608EEFAEFFBB3
:10650000123C30E9600F1265FCEEFAEFFB1234BC6E
:10651000E964017013901AD2E070030265D9740126
:10652000122CE4E4F0A380097401122CE4EEF0A331
:10653000EFF0901AD2E06402701785088285098313
:10654000A3A3126AC6E0687003A3E0696003026552
:10655000D98E828F83A3A3A3A3A3A3A3A3E0FEA2A8
:10656000E650087403122CE47401F0EEA2E7500820
:106570007404122CE47401F07405122CE4E4126823
:10658000B7F0F50A780A122A307401122A8C880AA8
:10659000890B780A122A2C750A34750B80780A1236
:1065A0002A2C1265DE1229EE908150122CB512446D
:1065B0004C7A007B001244587A007B0012445274DB
:1065C00001122A94123D92EEA2E7400D7401122CA2
:1065D000E41266AE7003124A2874060254807901F0
:1065E000E5082402FCE43509FDE508240FFAE4354A
:1065F000091265F522FB12388E7405221244288A8E
:106600000A8B0BAC0AAD0B22F5831279D2FF2274F0
:10661000F612245574FF122AD2EAFEEBFF901AD22A
:10662000E07011901EB9E0700B8A828B83A3A312D5
:1066300066AE706312669A12646DF50874FF6508A1
:1066400070037508FEA908123D4AE985188285196C
:1066500083F012418EE96005A9081239FC901AD224
:10666000E07005A9081239FCEE240B126AB37027FA
:106670007508007808122A307401122A8C8808895B
:10668000097808122A2C7508367509807808122AAC
:106690002C1264CB1229EE0264C6EA12669F2224F1
:1066A00013F582E43FF58322F582E438F583127610
:1066B00096E84922C082C083901AD2E07003123A51
:1066C00002D083D0820229D674F412245574EF12BA
:1066D0002AD2EAFEEBFF126778F508E439F5099053
:1066E0001825E06A7003A3E0697052A818A91988F8
:1066F0000A890B780A122A2C750A11750B00780A80
:10670000122A2C7C007D007A817B0012344A7404AA
:106710001229EEE97027750A00780A122A307401EE
:10672000122A8C880A890B780A122A2CAC08AD0927
